{
  "_format": "hh-sol-artifact-1",
  "contractName": "Auction_Contract",
  "sourceName": "contracts/Auction_Contract.sol",
  "abi": [
    {
      "inputs": [],
      "stateMutability": "nonpayable",
      "type": "constructor"
    },
    {
      "inputs": [],
      "name": "auctionEnded",
      "outputs": [
        {
          "internalType": "bool",
          "name": "",
          "type": "bool"
        }
      ],
      "stateMutability": "view",
      "type": "function"
    },
    {
      "inputs": [],
      "name": "auctioneer",
      "outputs": [
        {
          "internalType": "address",
          "name": "",
          "type": "address"
        }
      ],
      "stateMutability": "view",
      "type": "function"
    },
    {
      "inputs": [
        {
          "internalType": "uint256",
          "name": "",
          "type": "uint256"
        }
      ],
      "name": "bids",
      "outputs": [
        {
          "internalType": "address",
          "name": "bidder",
          "type": "address"
        },
        {
          "internalType": "bytes32",
          "name": "commitment",
          "type": "bytes32"
        },
        {
          "internalType": "uint256",
          "name": "revealedValue",
          "type": "uint256"
        }
      ],
      "stateMutability": "view",
      "type": "function"
    },
    {
      "inputs": [
        {
          "internalType": "uint256",
          "name": "bidValue",
          "type": "uint256"
        }
      ],
      "name": "commitBid",
      "outputs": [],
      "stateMutability": "nonpayable",
      "type": "function"
    },
    {
      "inputs": [],
      "name": "endAuction",
      "outputs": [],
      "stateMutability": "nonpayable",
      "type": "function"
    },
    {
      "inputs": [],
      "name": "getBids",
      "outputs": [
        {
          "components": [
            {
              "internalType": "address",
              "name": "bidder",
              "type": "address"
            },
            {
              "internalType": "bytes32",
              "name": "commitment",
              "type": "bytes32"
            },
            {
              "internalType": "uint256",
              "name": "revealedValue",
              "type": "uint256"
            }
          ],
          "internalType": "struct Auction_Contract.Bid[]",
          "name": "",
          "type": "tuple[]"
        }
      ],
      "stateMutability": "view",
      "type": "function"
    },
    {
      "inputs": [],
      "name": "getWinBid",
      "outputs": [
        {
          "internalType": "uint256",
          "name": "",
          "type": "uint256"
        }
      ],
      "stateMutability": "view",
      "type": "function"
    },
    {
      "inputs": [],
      "name": "getWinBidder",
      "outputs": [
        {
          "internalType": "address",
          "name": "",
          "type": "address"
        }
      ],
      "stateMutability": "view",
      "type": "function"
    },
    {
      "inputs": [
        {
          "internalType": "uint256",
          "name": "value",
          "type": "uint256"
        }
      ],
      "name": "revealBid",
      "outputs": [],
      "stateMutability": "nonpayable",
      "type": "function"
    },
    {
      "inputs": [],
      "name": "revealDeadline",
      "outputs": [
        {
          "internalType": "uint256",
          "name": "",
          "type": "uint256"
        }
      ],
      "stateMutability": "view",
      "type": "function"
    },
    {
      "inputs": [
        {
          "internalType": "uint256",
          "name": "_revealDeadline",
          "type": "uint256"
        }
      ],
      "name": "setRevealDeadline",
      "outputs": [],
      "stateMutability": "nonpayable",
      "type": "function"
    },
    {
      "inputs": [],
      "name": "winningBid",
      "outputs": [
        {
          "internalType": "uint256",
          "name": "",
          "type": "uint256"
        }
      ],
      "stateMutability": "view",
      "type": "function"
    },
    {
      "inputs": [],
      "name": "winningBidder",
      "outputs": [
        {
          "internalType": "address",
          "name": "",
          "type": "address"
        }
      ],
      "stateMutability": "view",
      "type": "function"
    }
  ],
  "bytecode": "0x608060405234801561001057600080fd5b50336000806101000a81548173ffffffffffffffffffffffffffffffffffffffff021916908373ffffffffffffffffffffffffffffffffffffffff16021790555061133d806100606000396000f3fe608060405234801561001057600080fd5b50600436106100cf5760003560e01c8063864333741161008c578063b14b28a311610066578063b14b28a3146101f0578063b81c78ec1461020e578063cea181e71461022c578063fe67a54b1461024a576100cf565b806386433374146101965780638890ed09146101b45780638cf80438146101d2576100cf565b806312410b7e146100d45780631a8800b5146100f05780632b9261841461010e5780633e3b903e1461012a5780634423c5f1146101465780635ec2c7bf14610178575b600080fd5b6100ee60048036038101906100e99190610d5e565b610254565b005b6100f8610307565b60405161010591906110c0565b60405180910390f35b61012860048036038101906101239190610d5e565b610405565b005b610144600480360381019061013f9190610d5e565b610582565b005b610160600480360381019061015b9190610d5e565b610700565b60405161016f939291906110db565b60405180910390f35b61018061075a565b60405161018d91906110c0565b60405180910390f35b61019e61077e565b6040516101ab9190611134565b60405180910390f35b6101bc610791565b6040516101c991906110c0565b60405180910390f35b6101da6107b7565b6040516101e7919061122f565b60405180910390f35b6101f86107bd565b604051610205919061122f565b60405180910390f35b6102166107c3565b6040516102239190611112565b60405180910390f35b61023461095f565b604051610241919061122f565b60405180910390f35b610252610a3d565b005b60008054906101000a900473ffffffffffffffffffffffffffffffffffffffff1673ffffffffffffffffffffffffffffffffffffffff163373ffffffffffffffffffffffffffffffffffffffff16146102e2576040517f08c379a00000000000000000000000000000000000000000000000000000000081526004016102d9906111ef565b60405180910390fd5b806001819055506000600260006101000a81548160ff02191690831515021790555050565b60008060009054906101000a900473ffffffffffffffffffffffffffffffffffffffff1673ffffffffffffffffffffffffffffffffffffffff163373ffffffffffffffffffffffffffffffffffffffff1614610398576040517f08c379a000000000000000000000000000000000000000000000000000000000815260040161038f906111ef565b60405180910390fd5b6001544210156103dd576040517f08c379a00000000000000000000000000000000000000000000000000000000081526004016103d4906111af565b60405180910390fd5b600460009054906101000a900473ffffffffffffffffffffffffffffffffffffffff16905090565b600260009054906101000a900460ff1615610455576040517f08c379a000000000000000000000000000000000000000000000000000000000815260040161044c9061120f565b60405180910390fd5b6001544210610499576040517f08c379a00000000000000000000000000000000000000000000000000000000081526004016104909061118f565b60405180910390fd5b6000816040516020016104ac91906110a5565b604051602081830303815290604052805190602001209050600360405180606001604052803373ffffffffffffffffffffffffffffffffffffffff1681526020018381526020016000815250908060018154018082558091505060019003906000526020600020906003020160009091909190915060008201518160000160006101000a81548173ffffffffffffffffffffffffffffffffffffffff021916908373ffffffffffffffffffffffffffffffffffffffff160217905550602082015181600101556040820151816002015550505050565b600260009054906101000a900460ff16156105d2576040517f08c379a00000000000000000000000000000000000000000000000000000000081526004016105c99061120f565b60405180910390fd5b6001544210610616576040517f08c379a000000000000000000000000000000000000000000000000000000000815260040161060d9061118f565b60405180910390fd5b6000600361062333610c6b565b8154811061062d57fe5b906000526020600020906003020190506000801b81600101541415610687576040517f08c379a000000000000000000000000000000000000000000000000000000000815260040161067e9061116f565b60405180910390fd5b80600101548260405160200161069d91906110a5565b60405160208183030381529060405280519060200120146106f3576040517f08c379a00000000000000000000000000000000000000000000000000000000081526004016106ea906111cf565b60405180910390fd5b8181600201819055505050565b6003818154811061071057600080fd5b90600052602060002090600302016000915090508060000160009054906101000a900473ffffffffffffffffffffffffffffffffffffffff16908060010154908060020154905083565b60008054906101000a900473ffffffffffffffffffffffffffffffffffffffff1681565b600260009054906101000a900460ff1681565b600460009054906101000a900473ffffffffffffffffffffffffffffffffffffffff1681565b60055481565b60015481565b606060008054906101000a900473ffffffffffffffffffffffffffffffffffffffff1673ffffffffffffffffffffffffffffffffffffffff163373ffffffffffffffffffffffffffffffffffffffff1614610853576040517f08c379a000000000000000000000000000000000000000000000000000000000815260040161084a906111ef565b60405180910390fd5b600154421015610898576040517f08c379a000000000000000000000000000000000000000000000000000000000815260040161088f906111af565b60405180910390fd5b6003805480602002602001604051908101604052809291908181526020016000905b8282101561095657838290600052602060002090600302016040518060600160405290816000820160009054906101000a900473ffffffffffffffffffffffffffffffffffffffff1673ffffffffffffffffffffffffffffffffffffffff1673ffffffffffffffffffffffffffffffffffffffff16815260200160018201548152602001600282015481525050815260200190600101906108ba565b50505050905090565b60008060009054906101000a900473ffffffffffffffffffffffffffffffffffffffff1673ffffffffffffffffffffffffffffffffffffffff163373ffffffffffffffffffffffffffffffffffffffff16146109f0576040517f08c379a00000000000000000000000000000000000000000000000000000000081526004016109e7906111ef565b60405180910390fd5b600154421015610a35576040517f08c379a0000000000000000000000000000000000000000000000000000000008152600401610a2c906111af565b60405180910390fd5b600554905090565b60008054906101000a900473ffffffffffffffffffffffffffffffffffffffff1673ffffffffffffffffffffffffffffffffffffffff163373ffffffffffffffffffffffffffffffffffffffff1614610acb576040517f08c379a0000000000000000000000000000000000000000000000000000000008152600401610ac2906111ef565b60405180910390fd5b600154421015610b10576040517f08c379a0000000000000000000000000000000000000000000000000000000008152600401610b07906111af565b60405180910390fd5b600260009054906101000a900460ff1615610b60576040517f08c379a0000000000000000000000000000000000000000000000000000000008152600401610b579061120f565b60405180910390fd5b6001600260006101000a81548160ff0219169083151502179055506000805b600380549050811015610c67578160038281548110610b9a57fe5b9060005260206000209060030201600201541115610c5a5760038181548110610bbf57fe5b906000526020600020906003020160020154915060038181548110610be057fe5b906000526020600020906003020160000160009054906101000a900473ffffffffffffffffffffffffffffffffffffffff16600460006101000a81548173ffffffffffffffffffffffffffffffffffffffff021916908373ffffffffffffffffffffffffffffffffffffffff160217905550816005819055505b8080600101915050610b7f565b5050565b600080600090505b600380549050811015610d08578273ffffffffffffffffffffffffffffffffffffffff1660038281548110610ca457fe5b906000526020600020906003020160000160009054906101000a900473ffffffffffffffffffffffffffffffffffffffff1673ffffffffffffffffffffffffffffffffffffffff161415610cfb5780915050610d44565b8080600101915050610c73565b506040517f08c379a0000000000000000000000000000000000000000000000000000000008152600401610d3b9061114f565b60405180910390fd5b919050565b600081359050610d58816112f0565b92915050565b600060208284031215610d7057600080fd5b6000610d7e84828501610d49565b91505092915050565b6000610d93838361102e565b60608301905092915050565b610da881611294565b82525050565b610db781611294565b82525050565b6000610dc88261125a565b610dd28185611272565b9350610ddd8361124a565b8060005b83811015610e0e578151610df58882610d87565b9750610e0083611265565b925050600181019050610de1565b5085935050505092915050565b610e24816112a6565b82525050565b610e33816112b2565b82525050565b610e42816112b2565b82525050565b6000610e55601083611283565b91507f426964646572206e6f7420666f756e64000000000000000000000000000000006000830152602082019050919050565b6000610e95601483611283565b91507f4e6f20636f6d6d69746d656e7420666f756e642e0000000000000000000000006000830152602082019050919050565b6000610ed5601783611283565b91507f52657665616c2070686173652068617320656e6465642e0000000000000000006000830152602082019050919050565b6000610f15601e83611283565b91507f52657665616c207068617365206973207374696c6c206f6e676f696e672e00006000830152602082019050919050565b6000610f55601783611283565b91507f496e76616c69642072657665616c65642076616c75652e0000000000000000006000830152602082019050919050565b6000610f95602b83611283565b91507f4f6e6c79207468652061756374696f6e6565722063616e2063616c6c2074686960008301527f732066756e6374696f6e2e0000000000000000000000000000000000000000006020830152604082019050919050565b6000610ffb601a83611283565b91507f41756374696f6e2068617320616c726561647920656e6465642e0000000000006000830152602082019050919050565b6060820160008201516110446000850182610d9f565b5060208201516110576020850182610e2a565b50604082015161106a6040850182611070565b50505050565b611079816112dc565b82525050565b611088816112dc565b82525050565b61109f61109a826112dc565b6112e6565b82525050565b60006110b1828461108e565b60208201915081905092915050565b60006020820190506110d56000830184610dae565b92915050565b60006060820190506110f06000830186610dae565b6110fd6020830185610e39565b61110a604083018461107f565b949350505050565b6000602082019050818103600083015261112c8184610dbd565b905092915050565b60006020820190506111496000830184610e1b565b92915050565b6000602082019050818103600083015261116881610e48565b9050919050565b6000602082019050818103600083015261118881610e88565b9050919050565b600060208201905081810360008301526111a881610ec8565b9050919050565b600060208201905081810360008301526111c881610f08565b9050919050565b600060208201905081810360008301526111e881610f48565b9050919050565b6000602082019050818103600083015261120881610f88565b9050919050565b6000602082019050818103600083015261122881610fee565b9050919050565b6000602082019050611244600083018461107f565b92915050565b6000819050602082019050919050565b600081519050919050565b6000602082019050919050565b600082825260208201905092915050565b600082825260208201905092915050565b600061129f826112bc565b9050919050565b60008115159050919050565b6000819050919050565b600073ffffffffffffffffffffffffffffffffffffffff82169050919050565b6000819050919050565b6000819050919050565b6112f9816112dc565b811461130457600080fd5b5056fea26469706673582212205b6b000e71566da74e96ad1326b903187d88011254543aa14163e6dde5aa8a6364736f6c63430007040033",
  "linkReferences": {},
  "deployedLinkReferences": {}
}