{
  "_format": "hh-sol-artifact-1",
  "contractName": "Auction_Contract",
  "sourceName": "contracts/Auction_Contract.sol",
  "abi": [
    {
      "inputs": [],
      "stateMutability": "nonpayable",
      "type": "constructor"
    },
    {
      "inputs": [],
      "name": "auctionEnded",
      "outputs": [
        {
          "internalType": "bool",
          "name": "",
          "type": "bool"
        }
      ],
      "stateMutability": "view",
      "type": "function"
    },
    {
      "inputs": [],
      "name": "auctioneer",
      "outputs": [
        {
          "internalType": "address",
          "name": "",
          "type": "address"
        }
      ],
      "stateMutability": "view",
      "type": "function"
    },
    {
      "inputs": [
        {
          "internalType": "uint256",
          "name": "",
          "type": "uint256"
        }
      ],
      "name": "bids",
      "outputs": [
        {
          "internalType": "address",
          "name": "bidder",
          "type": "address"
        },
        {
          "internalType": "bytes32",
          "name": "commitment",
          "type": "bytes32"
        },
        {
          "internalType": "uint256",
          "name": "revealedValue",
          "type": "uint256"
        }
      ],
      "stateMutability": "view",
      "type": "function"
    },
    {
      "inputs": [
        {
          "internalType": "uint256",
          "name": "bidValue",
          "type": "uint256"
        }
      ],
      "name": "commitBid",
      "outputs": [],
      "stateMutability": "nonpayable",
      "type": "function"
    },
    {
      "inputs": [],
      "name": "endAuction",
      "outputs": [],
      "stateMutability": "nonpayable",
      "type": "function"
    },
    {
      "inputs": [],
      "name": "getBids",
      "outputs": [
        {
          "components": [
            {
              "internalType": "address",
              "name": "bidder",
              "type": "address"
            },
            {
              "internalType": "bytes32",
              "name": "commitment",
              "type": "bytes32"
            },
            {
              "internalType": "uint256",
              "name": "revealedValue",
              "type": "uint256"
            }
          ],
          "internalType": "struct Auction_Contract.Bid[]",
          "name": "",
          "type": "tuple[]"
        }
      ],
      "stateMutability": "view",
      "type": "function"
    },
    {
      "inputs": [],
      "name": "getSecondHighestBid",
      "outputs": [
        {
          "internalType": "uint256",
          "name": "",
          "type": "uint256"
        }
      ],
      "stateMutability": "view",
      "type": "function"
    },
    {
      "inputs": [],
      "name": "getSecondHighestBidder",
      "outputs": [
        {
          "internalType": "address",
          "name": "",
          "type": "address"
        }
      ],
      "stateMutability": "view",
      "type": "function"
    },
    {
      "inputs": [],
      "name": "getWinBid",
      "outputs": [
        {
          "internalType": "uint256",
          "name": "",
          "type": "uint256"
        }
      ],
      "stateMutability": "view",
      "type": "function"
    },
    {
      "inputs": [],
      "name": "getWinBidder",
      "outputs": [
        {
          "internalType": "address",
          "name": "",
          "type": "address"
        }
      ],
      "stateMutability": "view",
      "type": "function"
    },
    {
      "inputs": [
        {
          "internalType": "uint256",
          "name": "value",
          "type": "uint256"
        }
      ],
      "name": "revealBid",
      "outputs": [],
      "stateMutability": "nonpayable",
      "type": "function"
    },
    {
      "inputs": [],
      "name": "revealDeadline",
      "outputs": [
        {
          "internalType": "uint256",
          "name": "",
          "type": "uint256"
        }
      ],
      "stateMutability": "view",
      "type": "function"
    },
    {
      "inputs": [],
      "name": "secondHighestBid",
      "outputs": [
        {
          "internalType": "uint256",
          "name": "",
          "type": "uint256"
        }
      ],
      "stateMutability": "view",
      "type": "function"
    },
    {
      "inputs": [],
      "name": "secondHighestBidder",
      "outputs": [
        {
          "internalType": "address",
          "name": "",
          "type": "address"
        }
      ],
      "stateMutability": "view",
      "type": "function"
    },
    {
      "inputs": [
        {
          "internalType": "uint256",
          "name": "_revealDeadline",
          "type": "uint256"
        }
      ],
      "name": "setRevealDeadline",
      "outputs": [],
      "stateMutability": "nonpayable",
      "type": "function"
    },
    {
      "inputs": [],
      "name": "winningBid",
      "outputs": [
        {
          "internalType": "uint256",
          "name": "",
          "type": "uint256"
        }
      ],
      "stateMutability": "view",
      "type": "function"
    },
    {
      "inputs": [],
      "name": "winningBidder",
      "outputs": [
        {
          "internalType": "address",
          "name": "",
          "type": "address"
        }
      ],
      "stateMutability": "view",
      "type": "function"
    }
  ],
  "bytecode": "0x608060405234801561001057600080fd5b50336000806101000a81548173ffffffffffffffffffffffffffffffffffffffff021916908373ffffffffffffffffffffffffffffffffffffffff16021790555061175e806100606000396000f3fe608060405234801561001057600080fd5b506004361061010b5760003560e01c806386433374116100a2578063b14b28a311610071578063b14b28a314610286578063b81c78ec146102a4578063c1b43a17146102c2578063cea181e7146102e0578063fe67a54b146102fe5761010b565b8063864333741461020e5780638890ed091461022c5780638cf804381461024a578063acb902f6146102685761010b565b80633e3b903e116100de5780633e3b903e146101845780634423c5f1146101a05780634aa9d9fd146101d25780635ec2c7bf146101f05761010b565b806312410b7e14610110578063143080a11461012c5780631a8800b51461014a5780632b92618414610168575b600080fd5b61012a6004803603810190610125919061117f565b610308565b005b6101346103bb565b6040516101419190611650565b60405180910390f35b610152610499565b60405161015f91906114e1565b60405180910390f35b610182600480360381019061017d919061117f565b610597565b005b61019e6004803603810190610199919061117f565b610714565b005b6101ba60048036038101906101b5919061117f565b610892565b6040516101c9939291906114fc565b60405180910390f35b6101da6108ec565b6040516101e791906114e1565b60405180910390f35b6101f86109ea565b60405161020591906114e1565b60405180910390f35b610216610a0e565b6040516102239190611555565b60405180910390f35b610234610a21565b60405161024191906114e1565b60405180910390f35b610252610a47565b60405161025f9190611650565b60405180910390f35b610270610a4d565b60405161027d9190611650565b60405180910390f35b61028e610a53565b60405161029b9190611650565b60405180910390f35b6102ac610a59565b6040516102b99190611533565b60405180910390f35b6102ca610bf5565b6040516102d791906114e1565b60405180910390f35b6102e8610c1b565b6040516102f59190611650565b60405180910390f35b610306610cf9565b005b60008054906101000a900473ffffffffffffffffffffffffffffffffffffffff1673ffffffffffffffffffffffffffffffffffffffff163373ffffffffffffffffffffffffffffffffffffffff1614610396576040517f08c379a000000000000000000000000000000000000000000000000000000000815260040161038d90611610565b60405180910390fd5b806001819055506000600260006101000a81548160ff02191690831515021790555050565b60008060009054906101000a900473ffffffffffffffffffffffffffffffffffffffff1673ffffffffffffffffffffffffffffffffffffffff163373ffffffffffffffffffffffffffffffffffffffff161461044c576040517f08c379a000000000000000000000000000000000000000000000000000000000815260040161044390611610565b60405180910390fd5b600154421015610491576040517f08c379a0000000000000000000000000000000000000000000000000000000008152600401610488906115d0565b60405180910390fd5b600754905090565b60008060009054906101000a900473ffffffffffffffffffffffffffffffffffffffff1673ffffffffffffffffffffffffffffffffffffffff163373ffffffffffffffffffffffffffffffffffffffff161461052a576040517f08c379a000000000000000000000000000000000000000000000000000000000815260040161052190611610565b60405180910390fd5b60015442101561056f576040517f08c379a0000000000000000000000000000000000000000000000000000000008152600401610566906115d0565b60405180910390fd5b600660009054906101000a900473ffffffffffffffffffffffffffffffffffffffff16905090565b600260009054906101000a900460ff16156105e7576040517f08c379a00000000000000000000000000000000000000000000000000000000081526004016105de90611630565b60405180910390fd5b600154421061062b576040517f08c379a0000000000000000000000000000000000000000000000000000000008152600401610622906115b0565b60405180910390fd5b60008160405160200161063e91906114c6565b604051602081830303815290604052805190602001209050600360405180606001604052803373ffffffffffffffffffffffffffffffffffffffff1681526020018381526020016000815250908060018154018082558091505060019003906000526020600020906003020160009091909190915060008201518160000160006101000a81548173ffffffffffffffffffffffffffffffffffffffff021916908373ffffffffffffffffffffffffffffffffffffffff160217905550602082015181600101556040820151816002015550505050565b600260009054906101000a900460ff1615610764576040517f08c379a000000000000000000000000000000000000000000000000000000000815260040161075b90611630565b60405180910390fd5b60015442106107a8576040517f08c379a000000000000000000000000000000000000000000000000000000000815260040161079f906115b0565b60405180910390fd5b600060036107b53361108c565b815481106107bf57fe5b906000526020600020906003020190506000801b81600101541415610819576040517f08c379a000000000000000000000000000000000000000000000000000000000815260040161081090611590565b60405180910390fd5b80600101548260405160200161082f91906114c6565b6040516020818303038152906040528051906020012014610885576040517f08c379a000000000000000000000000000000000000000000000000000000000815260040161087c906115f0565b60405180910390fd5b8181600201819055505050565b600381815481106108a257600080fd5b90600052602060002090600302016000915090508060000160009054906101000a900473ffffffffffffffffffffffffffffffffffffffff16908060010154908060020154905083565b60008060009054906101000a900473ffffffffffffffffffffffffffffffffffffffff1673ffffffffffffffffffffffffffffffffffffffff163373ffffffffffffffffffffffffffffffffffffffff161461097d576040517f08c379a000000000000000000000000000000000000000000000000000000000815260040161097490611610565b60405180910390fd5b6001544210156109c2576040517f08c379a00000000000000000000000000000000000000000000000000000000081526004016109b9906115d0565b60405180910390fd5b600660009054906101000a900473ffffffffffffffffffffffffffffffffffffffff16905090565b60008054906101000a900473ffffffffffffffffffffffffffffffffffffffff1681565b600260009054906101000a900460ff1681565b600460009054906101000a900473ffffffffffffffffffffffffffffffffffffffff1681565b60055481565b60075481565b60015481565b606060008054906101000a900473ffffffffffffffffffffffffffffffffffffffff1673ffffffffffffffffffffffffffffffffffffffff163373ffffffffffffffffffffffffffffffffffffffff1614610ae9576040517f08c379a0000000000000000000000000000000000000000000000000000000008152600401610ae090611610565b60405180910390fd5b600154421015610b2e576040517f08c379a0000000000000000000000000000000000000000000000000000000008152600401610b25906115d0565b60405180910390fd5b6003805480602002602001604051908101604052809291908181526020016000905b82821015610bec57838290600052602060002090600302016040518060600160405290816000820160009054906101000a900473ffffffffffffffffffffffffffffffffffffffff1673ffffffffffffffffffffffffffffffffffffffff1673ffffffffffffffffffffffffffffffffffffffff1681526020016001820154815260200160028201548152505081526020019060010190610b50565b50505050905090565b600660009054906101000a900473ffffffffffffffffffffffffffffffffffffffff1681565b60008060009054906101000a900473ffffffffffffffffffffffffffffffffffffffff1673ffffffffffffffffffffffffffffffffffffffff163373ffffffffffffffffffffffffffffffffffffffff1614610cac576040517f08c379a0000000000000000000000000000000000000000000000000000000008152600401610ca390611610565b60405180910390fd5b600154421015610cf1576040517f08c379a0000000000000000000000000000000000000000000000000000000008152600401610ce8906115d0565b60405180910390fd5b600754905090565b60008054906101000a900473ffffffffffffffffffffffffffffffffffffffff1673ffffffffffffffffffffffffffffffffffffffff163373ffffffffffffffffffffffffffffffffffffffff1614610d87576040517f08c379a0000000000000000000000000000000000000000000000000000000008152600401610d7e90611610565b60405180910390fd5b600154421015610dcc576040517f08c379a0000000000000000000000000000000000000000000000000000000008152600401610dc3906115d0565b60405180910390fd5b600260009054906101000a900460ff1615610e1c576040517f08c379a0000000000000000000000000000000000000000000000000000000008152600401610e1390611630565b60405180910390fd5b6001600260006101000a81548160ff02191690831515021790555060008060005b600380549050811015611080578260038281548110610e5857fe5b9060005260206000209060030201600201541115610f825782915060038181548110610e8057fe5b9060005260206000209060030201600201549250600460009054906101000a900473ffffffffffffffffffffffffffffffffffffffff16600660006101000a81548173ffffffffffffffffffffffffffffffffffffffff021916908373ffffffffffffffffffffffffffffffffffffffff16021790555060038181548110610f0457fe5b906000526020600020906003020160000160009054906101000a900473ffffffffffffffffffffffffffffffffffffffff16600460006101000a81548173ffffffffffffffffffffffffffffffffffffffff021916908373ffffffffffffffffffffffffffffffffffffffff16021790555082600581905550611073565b8160038281548110610f9057fe5b906000526020600020906003020160020154118015610fcc57508260038281548110610fb857fe5b906000526020600020906003020160020154105b156110725760038181548110610fde57fe5b906000526020600020906003020160020154915060038181548110610fff57fe5b906000526020600020906003020160000160009054906101000a900473ffffffffffffffffffffffffffffffffffffffff16600660006101000a81548173ffffffffffffffffffffffffffffffffffffffff021916908373ffffffffffffffffffffffffffffffffffffffff1602179055505b5b8080600101915050610e3d565b50806007819055505050565b600080600090505b600380549050811015611129578273ffffffffffffffffffffffffffffffffffffffff16600382815481106110c557fe5b906000526020600020906003020160000160009054906101000a900473ffffffffffffffffffffffffffffffffffffffff1673ffffffffffffffffffffffffffffffffffffffff16141561111c5780915050611165565b8080600101915050611094565b506040517f08c379a000000000000000000000000000000000000000000000000000000000815260040161115c90611570565b60405180910390fd5b919050565b60008135905061117981611711565b92915050565b60006020828403121561119157600080fd5b600061119f8482850161116a565b91505092915050565b60006111b4838361144f565b60608301905092915050565b6111c9816116b5565b82525050565b6111d8816116b5565b82525050565b60006111e98261167b565b6111f38185611693565b93506111fe8361166b565b8060005b8381101561122f57815161121688826111a8565b975061122183611686565b925050600181019050611202565b5085935050505092915050565b611245816116c7565b82525050565b611254816116d3565b82525050565b611263816116d3565b82525050565b60006112766010836116a4565b91507f426964646572206e6f7420666f756e64000000000000000000000000000000006000830152602082019050919050565b60006112b66014836116a4565b91507f4e6f20636f6d6d69746d656e7420666f756e642e0000000000000000000000006000830152602082019050919050565b60006112f66017836116a4565b91507f52657665616c2070686173652068617320656e6465642e0000000000000000006000830152602082019050919050565b6000611336601e836116a4565b91507f52657665616c207068617365206973207374696c6c206f6e676f696e672e00006000830152602082019050919050565b60006113766017836116a4565b91507f496e76616c69642072657665616c65642076616c75652e0000000000000000006000830152602082019050919050565b60006113b6602b836116a4565b91507f4f6e6c79207468652061756374696f6e6565722063616e2063616c6c2074686960008301527f732066756e6374696f6e2e0000000000000000000000000000000000000000006020830152604082019050919050565b600061141c601a836116a4565b91507f41756374696f6e2068617320616c726561647920656e6465642e0000000000006000830152602082019050919050565b60608201600082015161146560008501826111c0565b506020820151611478602085018261124b565b50604082015161148b6040850182611491565b50505050565b61149a816116fd565b82525050565b6114a9816116fd565b82525050565b6114c06114bb826116fd565b611707565b82525050565b60006114d282846114af565b60208201915081905092915050565b60006020820190506114f660008301846111cf565b92915050565b600060608201905061151160008301866111cf565b61151e602083018561125a565b61152b60408301846114a0565b949350505050565b6000602082019050818103600083015261154d81846111de565b905092915050565b600060208201905061156a600083018461123c565b92915050565b6000602082019050818103600083015261158981611269565b9050919050565b600060208201905081810360008301526115a9816112a9565b9050919050565b600060208201905081810360008301526115c9816112e9565b9050919050565b600060208201905081810360008301526115e981611329565b9050919050565b6000602082019050818103600083015261160981611369565b9050919050565b60006020820190508181036000830152611629816113a9565b9050919050565b600060208201905081810360008301526116498161140f565b9050919050565b600060208201905061166560008301846114a0565b92915050565b6000819050602082019050919050565b600081519050919050565b6000602082019050919050565b600082825260208201905092915050565b600082825260208201905092915050565b60006116c0826116dd565b9050919050565b60008115159050919050565b6000819050919050565b600073ffffffffffffffffffffffffffffffffffffffff82169050919050565b6000819050919050565b6000819050919050565b61171a816116fd565b811461172557600080fd5b5056fea26469706673582212205f198b4dfefd3b57d1ebc381924e2133109f2bef70b3c58a67bc4309415c5e5364736f6c63430007040033",
  "linkReferences": {},
  "deployedLinkReferences": {}
}